:020000040800F2
:10000000A009002011280008390200083B0200085E
:100010003F020008430200084702000800000000F9
:100020000000000000000000000000004B0200087B
:100030004D020008000000004F02000819210008CE
:100040002B2800082B2800082B2800082B28000844
:100050002B2800082B2800082B2800082B28000834
:100060002B2800082B2800082B2800082B28000824
:100070002B2800082B2800082B2800082B28000814
:100080002B2800082B2800082B2800082B28000804
:100090002B2800082B2800082B2800082B280008F4
:1000A0002B2800082B2800082B2800082B280008E4
:1000B0002B280008172500082B2800082B280008EB
:1000C0002B2800082B2800082B2800082B280008C4
:1000D0002B28000887270008051A00089522000829
:1000E0002B2800082B2800082B2800082B280008A4
:1000F0002B2800082B2800082B2800082B28000894
:100100002B2800082B2800082B2800082B28000883
:100110002B2800082B2800082B280008BD250008E4
:100120002B2800082B2800082B2800082B28000863
:1001300000F002F800F04BF80AA090E8000C8244AE
:100140008344AAF10107DA4501D100F040F8AFF28B
:10015000090EBAE80F0013F0010F18BFFB1A43F0A5
:1001600001031847B0710000D0710000103A24BF9D
:1001700078C878C1FAD8520724BF30C830C144BF0C
:1001800004680C607047000000230024002500264E
:10019000103A28BF78C1FBD8520728BF30C148BFEA
:1001A0000B607047642904F0D380732904F0AB829C
:1001B000002070471FB504F0D3FB0400002000218D
:1001C00005F03AF9401C60601FBD10B510BD04F089
:1001D000A2FB1146FFF7EEFF00F008F804F0D2FB97
:1001E00003B4FFF7F2FF03BC02F072FA70B500240B
:1001F000002500F09DF802F001FA02F0B3F800F0DB
:10020000A7FD02F0D7F84FF4A06003F0A7F84FF471
:10021000165002F06CFA09E0002002F0F4F80446EF
:10022000012C00D103E0322002F025FAF4E700BFF0
:1002300001F01BF8002070BD704700BFFEE700BF53
:10024000FEE700BFFEE700BFFEE77047704770475C
:100250000CB50020019000906C48006840F480309C
:100260006A49086000BF6948006800F400300090E7
:100270000198401C0190009820B94FF6FF71019839
:100280008842F0D16148006800F4003010B10120CC
:10029000009001E0002000900098012843D15C48C4
:1002A000006840F010005A4908600846006820F0D5
:1002B000030008600846006840F0020008605348E8
:1002C00040685249486008464068486008464068AF
:1002D00040F4806048600846406820F47C10486024
:1002E0000846406840F4E81048600846006840F05E
:1002F0008070086000BF4548006800F0007000286A
:10030000F9D04248406820F0030040494860084660
:10031000406840F00200486000BF3C48406800F080
:100320000C000828F9D10CBD10B5FFF791FF10BDE6
:1003300010B53648006840F00100344908600846AE
:1003400040683449084031494860084600683249ED
:1003500008402E4908600846006820F480200860A4
:100360000846406820F4FE0048604FF41F00886093
:10037000FFF7DAFF4FF000602849086010BD10B5A4
:10038000002100200022214B5B6803F00C0121B109
:10039000042906D0082928D107E0214B214C2360ED
:1003A00027E01F4B1F4C236023E0184B5B6803F4CE
:1003B0007010164B5B6803F48032022303EB90400D
:1003C00022B9194B4343174C23600DE00F4B5B6878
:1003D00003F4003323B1144B4343124C236003E076
:1003E0000F4B43430F4C236003E00D4B0D4C236038
:1003F00000BF00BF054B5B68C3F303130B4CE15C0C
:10040000084B1B68CB40074C236010BD0010024016
:10041000002002400000FFF8FFFFF6FE08ED00E0BC
:1004200000127A000000002000093D0004000020B6
:1004300030B5014601F01F04C1F34513CA0AE502B5
:1004400005EB43151544A8B230BD2DE9F04706462B
:100450000F4690469A46002445464FEA4800C0F1B0
:1004600003094AE07A1991B2321990B2524600F06B
:10047000BFFD7A1991B2321B90B2524600F0B8FD1E
:100480007A1B91B2321990B2524600F0B1FD7A1B3C
:1004900091B2321B90B2524600F0AAFD3A1991B2C5
:1004A000721990B2524600F0A3FD3A1991B2721B34
:1004B00090B2524600F09CFD3A1B91B2721990B274
:1004C000524600F095FD3A1B91B2721B90B2524613
:1004D00000F08EFDB9F1000F05DA042000FB049056
:1004E00000F1060907E0601B042101FB009000F108
:1004F0000A09681E85B2601C84B2AC42B2DBAC4211
:1005000037D17A1991B2321990B2524600F070FD8B
:100510007A1991B2321990B2524600F069FD7A1BF5
:1005200091B2321990B2524600F062FD7A1B91B23C
:10053000321B90B2524600F05BFD3A1991B272192B
:1005400090B2524600F054FD3A1991B2721B90B22B
:10055000524600F04DFD3A1B91B2721990B25246CC
:1005600000F046FD3A1B91B2721B90B2524600F069
:100570003FFDBDE8F0872DE9FF4F83B080468946F7
:100580004946404600F02AFD0598A0EB080506986C
:10059000A0EB0906002D02DB0120029003E04FF0E2
:1005A000FF3002906D42002E02DB0120019003E03B
:1005B0004FF0FF30019076424FEA450A4FEA460B72
:1005C000B54219DDABEB0504002712E04946404671
:1005D000109A00F00DFD002C05DBA4EB0A04019835
:1005E00048441FFA80F95C44029840441FFA80F89E
:1005F0007F1CAF42EADD18E0AAEB0604002712E0F8
:1006000049464046109A00F0F3FC002C05DBA4EBB1
:100610000B04029840441FFA80F85444019848445F
:100620001FFA80F97F1CB742EADD07B0BDE8F08F02
:100630002DE9F84305460C4616461F46DDF8208096
:100640004EF67D700090A81982B2234621462846B6
:10065000FFF791FF42F6651004F1010CBC441FFA4C
:100660008CF305EB060CACF1010C1FFA8CF204F1D3
:10067000010C1FFA8CF105EB060CACF1010C00909B
:100680001FFA8CF0FFF777FF42F665100090E01933
:1006900083B2A81982B2E01981B22846FFF76BFF36
:1006A0004EF67D700090E01983B22A462146284616
:1006B000FFF761FF04F1010CBC44ACF1020C1FFA1E
:1006C0008CF305F1010CB444ACF1020C1FFA8CF26E
:1006D00004F1010C1FFA8CF105F1010C1FFA8CF0EA
:1006E000CDF80080FFF747FFBDE8F8832DE9F84318
:1006F00005460C4616461F46DDF82080B8F1000F6F
:1007000039D14EF67D700090A81982B22346214659
:100710002846FFF730FF42F6651004F1010CBC4497
:100720001FFA8CF305EB060CACF1010C1FFA8CF2EE
:1007300004F1010C1FFA8CF105EB060CACF1010C75
:1007400000901FFA8CF0FFF716FF42F6651000903C
:10075000E01983B2A81982B2E01981B22846FFF7E6
:100760000AFF4EF67D700090E01983B22A462146BA
:100770002846FFF700FFB8F1010F39D142F66510A6
:100780000090A81982B2234621462846FFF7F3FEBF
:100790004EF67D7004F1010CBC441FFA8CF305EB9E
:1007A000060CACF1010C1FFA8CF204F1010C1FFADB
:1007B0008CF105EB060CACF1010C00901FFA8CF0EB
:1007C000FFF7D9FE4EF67D700090E01983B2A819AC
:1007D00082B2E01981B22846FFF7CDFE42F66510DD
:1007E0000090E01983B22A4621462846FFF7C3FE4F
:1007F000B8F1020F39D14FF6FF700090A81982B2FC
:10080000234621462846FFF7B6FE4FF6FF7004F157
:10081000010CBC441FFA8CF305EB060CACF1010C87
:100820001FFA8CF204F1010C1FFA8CF105EB060C97
:10083000ACF1010C00901FFA8CF0FFF79CFE4FF614
:10084000FF700090E01983B2A81982B2E01981B25A
:100850002846FFF790FE4FF6FF700090E01983B234
:100860002A4621462846FFF786FEBDE8F883F8B5FC
:1008700004460D4616461F4644F208202B463246D3
:10088000294600902046FFF776FE48F210406A1C89
:1008900093B291B2621C009090B23246FFF76BFEA9
:1008A00044F208203B462246294600902046FFF7A6
:1008B00062FE48F21040631C9AB26B1C99B2631C32
:1008C000009098B23B46FFF756FE4FF6FF703B464E
:1008D0003246394600902046FFF74DFE4FF6FF7036
:1008E0003B463246294600903046FFF744FEF8BDAD
:1008F000F8B506460F4614461D464FF6FF703B46B8
:100900002246394600903046FFF735FE4FF6FF701D
:100910002B463246394600903046FFF72CFE48F20F
:1009200010406A1E93B291B2721C009090B222469F
:10093000FFF721FE44F208202B462246294600906C
:100940003046FFF718FE48F21040631E9AB27B1C37
:1009500099B2631E009098B22B46FFF70CFE44F24A
:1009600008202B462246394600902046FFF703FE1A
:10097000F8BD2DE9F84F0446884693469A46DDF8BF
:100980002890009440E099F8000080283CDA99F81B
:1009900000700D2F05D1009C08F110001FFA80F89F
:1009A00030E0202F03DDA7F1200087B200E0002710
:1009B000002522E000261CE005EB07108149095CB8
:1009C00080203041014041B108EB050291B2A219EB
:1009D00090B25A4600F00CFB09E0D34507D008EB73
:1009E000050291B2A21990B2524600F001FB701CB0
:1009F000C6B2082EE0DB681CC5B2102DDADB04F1AC
:100A0000080084B209F1010999F800000028BAD160
:100A1000BDE8F88F2DE9F84F04460F4693469A46F5
:100A2000DDF82880009442E098F8000080283EDA43
:100A300098F80090B9F10D0F04D1009C07F10C005B
:100A400087B232E0B9F1200F04DDA9F120001FFACE
:100A500080F901E04FF00009002522E000261CE0AB
:100A600009EB490005EB80005749095C80203041C3
:100A7000014039B17A1991B2A21990B25A4600F0E8
:100A8000B7FA08E0D34506D07A1991B2A21990B20C
:100A9000524600F0ADFA701CC6B2062EE0DB681CB0
:100AA000C5B20C2DDADBA01D84B208F1010898F85C
:100AB00000000028B8D1BDE8F88F2DE9F05F0646A8
:100AC000894693469A460A9F39E03878802836DA74
:100AD00097F80080B8F1200F04DDA8F120001FFA7C
:100AE00080F801E04FF00008002422E000251CE01F
:100AF00004EB08103349095C80202841014041B1D2
:100B000009EB040291B2721990B25A4600F070FAE1
:100B100009E0D34507D009EB040291B2721990B2F3
:100B2000524600F065FA681CC5B2082DE0DB601C77
:100B3000C4B2102CDADB7F1C06F1080086B23878CC
:100B40000028C2D1BDE8F09F2DE9F05F0746884636
:100B500092469946002531E000242BE01B490A9873
:100B600001EBC01000EB850010F804B000261DE07A
:100B70008020304100EA0B0050B108EB050291B231
:100B800007EBC402324490B2524600F031FA0BE057
:100B9000CA4509D008EB050291B207EBC402324402
:100BA00090B24A4600F024FA701CC6B2082EDFDB71
:100BB000601CC4B2042CD1DB681CC5B2202DCBDB79
:100BC000BDE8F09FFC5E0008ED6400086269000863
:100BD00008B50121084602F058F90121FA4801F050
:100BE00068FF01211C2002F050F90121242002F0AD
:100BF0004CF94FF41860ADF8000003208DF80200A6
:100C000010208DF803006946F04801F081FE4FF492
:100C1000E060ADF8000003208DF8020010208DF890
:100C200003006946EA4801F073FE0121242002F026
:100C30002CF94FF48070ADF8000010208DF80300FF
:100C400003208DF802006946E24801F061FE4FF48E
:100C50008071E04801F009FF0420ADF8000069460A
:100C6000DD4801F055FE0421DB4801F0FEFE08BD21
:100C70000021082114E000F0800222B14FF400723C
:100C8000D34B1A6103E04FF40072D14B5A614FF419
:100C90008072CF4B5A611A614206100E4A1ED1B2C1
:100CA0000029E8DC704710B504464FF48070C7494E
:100CB00014310860802008602046FFF7D9FF4FF408
:100CC0008070C2491031086010BD10B504464FF461
:100CD0008070BE49143108608020091F08602046DA
:100CE000FFF7C6FF4FF48070B8491031086010BD9F
:100CF00010B504464FF48070B44914310860802068
:100D0000091F08602012FFF7B3FFE0B2FFF7B0FF42
:100D10004FF48070AD491031086010BD30B5054604
:100D20000C462846FFF7BFFF2046FFF7CEFF30BD39
:100D300010B54FF48060A6494861642001F09BFC27
:100D40004FF48060A2490861322001F094FC10BD8C
:100D500010B5FFF73DFFFFF7EBFF1120FFF7A3FFF3
:100D6000782001F088FCB120FFF79DFF0120FFF7FC
:100D7000ACFF2C20FFF7A9FF2D20FFF7A6FFB22024
:100D8000FFF791FF0120FFF7A0FF2C20FFF79DFF49
:100D90002D20FFF79AFFB320FFF785FF0120FFF713
:100DA00094FF2C20FFF791FF2D20FFF78EFF0120ED
:100DB000FFF78BFF2C20FFF788FF2D20FFF785FF23
:100DC000B420FFF770FF0720FFF77FFFC020FFF779
:100DD0006AFFA220FFF779FF0220FFF776FF842049
:100DE000FFF773FFC120FFF75EFFC520FFF76DFF20
:100DF000C220FFF758FF0A20FFF767FF0020FFF728
:100E000064FFC320FFF74FFF8A20FFF75EFF2A2011
:100E1000FFF75BFFC420FFF746FF8A20FFF755FF6F
:100E2000EE20FFF752FFC520FFF73DFF0E20FFF732
:100E30004CFF3620FFF737FFC820FFF746FFE020C2
:100E4000FFF731FF0F20FFF740FF1A20FFF73DFFAC
:100E50000F20FFF73AFF1820FFF737FF2F20FFF78B
:100E600034FF2820FFF731FF2020FFF72EFF22203C
:100E7000FFF72BFF1F20FFF728FF1B20FFF725FFA1
:100E80002320FFF722FF3720FFF71FFF0020FFF787
:100E90001CFF0720FFF719FF0220FFF716FF1020A5
:100EA000FFF713FFE120FFF7FEFE0F20FFF70DFF16
:100EB0001B20FFF70AFF0F20FFF707FF1720FFF7A0
:100EC00004FF3320FFF701FF2C20FFF7FEFE29204F
:100ED000FFF7FBFE2E20FFF7F8FE3020FFF7F5FEB0
:100EE0003020FFF7F2FE3920FFF7EFFE3F20FFF73B
:100EF000ECFE0020FFF7E9FE0720FFF7E6FE0320E7
:100F0000FFF7E3FE1020FFF7E0FE2A20FFF7CBFEFD
:100F10000020FFF7DAFE0020FFF7D7FE0020FFF7E2
:100F2000D4FE7F20FFF7D1FE2B20FFF7BCFE002070
:100F3000FFF7CBFE0020FFF7C8FE0020FFF7C5FE3D
:100F40009F20FFF7C2FEF020FFF7ADFE0120FFF764
:100F5000BCFEF620FFF7A7FE0020FFF7B6FE3A2002
:100F6000FFF7A1FE0520FFF7B0FE2920FFF79BFE4B
:100F700010BDF0B504460D4616461F462A20FFF761
:100F800092FE0020FFF7A1FEA11CC8B2FFF79DFE54
:100F90000020FFF79AFEB11CC8B2FFF796FE2B2087
:100FA000FFF781FE0020FFF790FE691CC8B2FFF733
:100FB0008CFE0020FFF789FE791CC8B2FFF785FE82
:100FC0002C20FFF770FEF0BD00023000000C014045
:100FD00000100140000801400014014030B50446F3
:100FE0000D462B46224629462046FFF7C2FF30BD5C
:100FF00070B504460D461646681C83B2601C82B26A
:1010000029462046FFF7B5FF3046FFF771FE70BD59
:1010100060B505460E4631462846FFF7DFFFE0B2D1
:10102000FFF753FE204660BD70B506469F237F2222
:1010300000210846FFF79DFF2C20FFF734FE002417
:1010400008E0002503E03046FFF752FE6D1CA02D9E
:10105000F9D3641C802CF4D370BD42F202010880E5
:1010600070472DE9F04706460F4691469A464C4692
:101070000025A8464CE07A1991B2321990B2524636
:10108000FFF7B6FF3A1991B2721990B25246FFF7C4
:10109000AFFF3A1991B2721B90B25246FFF7A8FF08
:1010A0007A1991B2321B90B25246FFF7A1FF7A1B18
:1010B00091B2321B90B25246FFF79AFF3A1B91B29F
:1010C000721B90B25246FFF793FF3A1B91B272190E
:1010D00090B25246FFF78CFF7A1B91B2321990B250
:1010E0005246FFF785FF681C85B26800401C4044EB
:1010F0001FFA80F8A8EB04004000401C002807DD20
:10110000601E84B26000C0F1010040441FFA80F804
:10111000AC42B0DABDE8F0876848007870B94FF6A5
:10112000FF70674908800020664908804FF47840C6
:10113000654908804FF6FF70644908805F48007871
:1011400001280CD100205E4908804FF6FF705D49F0
:1011500008805D4908804FF478405C4908807047FA
:10116000F8B505460C461646FFF7D6FF302E09D1D6
:101170005448009403885248028829460320FFF708
:10118000F8FB08E05148009403884F48028829463C
:101190000320FFF7EEFBF8BD38B5002405254CA071
:1011A0000090484803881F2269210320FFF7E1FBD4
:1011B00014E03CB94A4850F8241031222846FFF781
:1011C000CFFF06E0464850F8241030222846FFF7AB
:1011D000C7FF05F1120085B2601C04B2052CE8DBE4
:1011E00038BDF8B505460024052636480088FFF7C7
:1011F0001BFF37A00090334803881F22692103207A
:10120000FFF7B7FB15E0AC4207D1354850F8241082
:1012100031223046FFF7A4FF06E0314850F8241091
:1012200030223046FFF79CFF06F1120086B2601CA8
:1012300004B2052CE7DBF8BD10B50446022C01D141
:1012400000F0F6F9032C01D100F0EFFA0CB900F030
:10125000A4F9012C01D100F061FD1A480088FFF7C4
:10126000E3FE2046FFF7BDFF10BD0025002400204F
:1012700012490870FFF750FF4FF4006019490860E9
:1012800010480088FFF7D0FEFFF786FF14E0002526
:10129000002001F0B8F80546012D08D1042C01D139
:1012A000002401E0601C04B22046FFF79AFF022DE3
:1012B00002D12046FFF7C0FFE9E700003000002020
:1012C000280000202A0000202C0000202E000020F2
:1012D00054616968616E6720536869656C640000D9
:1012E00014000020100C014070472DE9F14F84B02C
:1012F000BDF910004043BDF9121001FB010080B29E
:101300000290B24909880298884256DDBDF9120060
:10131000BDF9101090FBF1F0019004F0E6FA82465E
:1013200003F06EFE804689464046494603F078FF4A
:1013300082468B46A548008804F0EEFA52465B468A
:10134000CDE9000104F038FB04460D46204629464D
:1013500003F0B4FF04460D464046494604F01CF82D
:1013600082468B469948008804F0D6FA52465B467E
:10137000CDE9000104F020FB06460F463046394611
:1013800003F09CFF06460F462046294604F07EFAED
:1013900000B2ADF81000BDF910108DA002F05AFF98
:1013A0003046394604F072FA00B2ADF81200BDF9C9
:1013B000121087A002F04EFF00BFBDF910000028F8
:1013C00013DABDF9120000280FDABDF810008149C8
:1013D0000988401A80B2ADF80C00BDF812007E49B1
:1013E0000988084480B2ADF80E00BDF9100000284D
:1013F00013DDBDF9120000280FDCBDF8100075499F
:101400000988084480B2ADF80C00BDF8120072499A
:101410000988084480B2ADF80E00BDF9100000281C
:1014200013DCBDF9120000280FDDBDF8100069497A
:101430000988081A80B2ADF80C00BDF812006649A0
:101440000988081A80B2ADF80E00BDF91000002816
:1014500013DDBDF9120000280FDDBDF810005D4955
:101460000988084480B2ADF80C00BDF812005A4952
:101470000988081A80B2ADF80E00039805B0BDE8DF
:10148000F08F08B555A000234FF6FF72322100906F
:101490000A20FFF7BFFA08BD01B582B04FF6FF7012
:1014A0000090BDF80A10BDF8080003231A46FFF7A4
:1014B000BFF80EBD0EB54D49088800EBD07149103C
:1014C000444A11804A49088800EBD0714910C91F6D
:1014D000414A11804FF4FC633C4802883E48018831
:1014E0003C480088FEF7B1FF4FF4FC60009039489B
:1014F000008836490988084482B237480388018841
:1015000034480088FFF737F84FF4FC60009031480A
:1015100000882E490988401A82B22F480388018822
:101520002C480088FFF727F84FF4FC6000902A4809
:10153000008826490988084483B22648028826483C
:10154000018824480088FFF716F84FF4FC600090EB
:10155000214800881D490988401A83B21D48028825
:101560001D4801881B480088FFF705F81BA00023D1
:101570004FF4FC62782100900A20FFF74BFA6420B8
:10158000ADF80800C820ADF80A000298FFF7ADFEDC
:1015900001900198FFF780FF0EBD10B500240020D8
:1015A000FFF742FD0FE00024002000F02CFF04466E
:1015B0001048007810B9FFF764FF01E0FFF77AFFE9
:1015C000022C00D100E0EEE700BF10BD3E0000207D
:1015D00025640A003A0000203C0000204E6F205392
:1015E0006967616C203131313131000034000020F5
:1015F000360000203200002008B542480068424909
:101600000968884213D0404840A10268404802F06F
:101610002DFE3F4800903F4803883F480288322112
:101620000A20FFF7A6F9384800683649086008BD67
:1016300008B5002400BF00BF4FF4A06001F08EFE8B
:1016400034480088FFF7F0FC00F0AEFD33A00090B6
:1016500030480388304802880A210846FFF789F994
:1016600031A000902B4803882B4802885A210A2079
:10167000FFF77FF945E00024002000F0C4FE044697
:10168000022C3ED123480088FFF7CEFC012240F215
:101690002551274801F039FD00BF26480068002881
:1016A000FBD02448006801282BD11CA000901948C9
:1016B0000388194802880A210846FFF75AF91AA038
:1016C000009014480388144802885A210A20FFF722
:1016D00050F9194800900F4803880F4802883221BA
:1016E0000A20FFF746F9C821134802F00EFF002038
:1016F0001249086012490860124908600D490860E3
:101700000024B8E740000020A0000020256400006D
:10171000C40000202A0000202800002074696D65A4
:101720004D616B65720000007365636F6E6400004D
:101730000048004098000020AC01002094000020E8
:10174000900000208C00002038B500240525474873
:101750000088FFF769FC46A000231F226921009042
:101760000320FFF706F914E03CB9454850F824106F
:1017700031222846FFF7F4FC06E0414850F82410D7
:1017800030222846FFF7ECFC05F1120085B2601C00
:1017900004B2042CE8DB38BD10B53A480078401C90
:1017A000022803D100203749087004E0354800784A
:1017B000401C34490870FFF7AFFCFFF7C5FF10BDB0
:1017C000F8B505460024052628480088FFF72CFCBC
:1017D00027A000231F22692100900320FFF7C9F8EA
:1017E00015E0AC4207D1264850F82410312230468B
:1017F000FFF7B6FC06E0224850F8241030223046AD
:10180000FFF7AEFC06F1120086B2601C04B2042C95
:10181000E7DBF8BD10B504460CB9FFF7BDFF032C9C
:1018200001D1002010BD0120FCE770B50025002487
:10183000FFF78AFF16E00025002000F0E4FD0546D2
:10184000012D08D1032C01D1002401E0601C04B259
:101850002046FFF7B5FF022D04D12046FFF7DAFF3F
:1018600000B900E0E7E700BF70BD00002A000020DB
:1018700054616968616E6720536869656C64000033
:101880004400002030000020014600BF704770B5C2
:1018900005460C460BE014F8011B284601F096FCA7
:1018A00000BF8021284601F0FFFC0028F9D02078F5
:1018B0000028F0D170BD08B50121102001F0E5FA33
:1018C0008020ADF8000010208DF8030003208DF873
:1018D000020069466A4801F01BF88021684801F05F
:1018E000C6F84FF48070ADF8000010208DF80300AA
:1018F00003208DF802006946614801F009F84FF4B1
:1019000080715F4801F0B1F808BD10B586B004469B
:101910000121480401F0C6FA0121042001F0B5FAC2
:101920000420ADF8140018208DF8170003208DF85E
:10193000160005A9534800F0EBFF0820ADF814008D
:1019400004208DF8170005A94E4800F0E1FF4FF480
:10195000165001900020ADF80800ADF80A00ADF86F
:101960000C00ADF810000C20ADF80E0001A946489F
:1019700001F033FB0121444801F0BBFB4021424808
:1019800001F09FFC012240F225513F4801F0BDFBD0
:101990004FF4A06001F0E2FC26208DF80000012049
:1019A0008DF803008DF801008DF80200684601F003
:1019B000DAFCFFF780FF06B010BD70B50446A588BD
:1019C0002021204601F07DFC70BD2DE9F041074645
:1019D0000C46204602F029FD064600250BE0615D1D
:1019E000294801F0F3FB00BF4021274801F05CFCCF
:1019F0000028F9D06D1CB542F1DB24A002F02AFCCE
:101A0000BDE8F08110B540F225511F4801F062FC9D
:101A100010B31D4801F0DEFBC4B21F48008800F47B
:101A20000040C8B91C48008800F4804060B10A2C0E
:101A300003D000201849088020E01748008840F4AF
:101A400000401549088019E00D2C06D11248008885
:101A500040F480401049088010E00F480088C0F32F
:101A60000D000E490C540C480088401C0A4908809F
:101A700008460088C72801DD0020088010BD00004E
:101A8000001001400008014000440040CED2D3C302
:101A9000C0B20D0A0000000058000020D80000204D
:101AA00010B5012240F22551FE4801F02EFB02E064
:101AB000FDA002F0CFFBFE4800680028F8D0FC48EB
:101AC0000068012810D1FB4802F07EFC0446C821C2
:101AD000F84802F01AFD0020F7490860F74908604D
:101AE000F7490860F2490860F6A002F0B3FB20460F
:101AF00010BD08B50020FFF797FAF4A000231F22BD
:101B00000A2100900320FEF734FF08BD38B50024F9
:101B100005250020FFF788FAEFA000231F22692186
:101B200000900320FEF725FF14E03CB9EE4850F882
:101B3000241031222846FFF713FB06E0EA4850F84C
:101B4000241030222846FFF70BFB05F1120085B266
:101B5000601C04B2032CE8DB38BD38B50446002015
:101B6000FFF762FAE1A000231F220A210090032060
:101B7000FEF7FFFE00231F22462103200094FEF7FC
:101B8000F8FEDC480078012808D1DBA000234FF4E0
:101B90007842502100900846FEF7EBFED5480078C9
:101BA000022808D1D5A000234FF47842502100909C
:101BB0000846FEF7DEFECF48007840B9D0A00023EB
:101BC0004FF47842502100900846FEF7D2FE38BD0F
:101BD000F8B50546002405260020FFF725FABEA02B
:101BE00000231F22692100900320FEF7C2FE15E0AA
:101BF000AC4207D1BC4850F8241031223046FFF7E0
:101C0000AFFA06E0B84850F8241030223046FFF70B
:101C1000A7FA06F1120086B2601C04B2032CE7DBBF
:101C2000F8BD10B90021B74A1170012802D1012175
:101C3000B44A1170704703B5DDE90001884202DA49
:101C40000120AC490870DDE90001884203DD022073
:101C5000A849087002E00020A64908700CBD30B504
:101C600085B004460D462246691C684602F008FC11
:101C700000200DF804006846FFF76FFF05B030BD87
:101C800010B502460023002103E052F8214023440E
:101C9000491C0329F9DB032493FBF4F010BD10B5B4
:101CA0009948008800F40040002835D097499848AA
:101CB00002F04EFC40B9C821954802F026FC0020F5
:101CC00091490880012010BD9249914802F040FCE2
:101CD00040B9C8218E4802F018FC00208A490880CB
:101CE0000220F0E78A498CA002F0B4FA8CA188485F
:101CF00002F02EFC40B9C821854802F006FC002005
:101D0000814908800320DEE7C821814802F0FDFBFD
:101D100000207D490880D6E70020D4E78AB000245F
:101D2000A14600260025A346A046A24677497E4844
:101D300002F057FB5DA17C4802F096FB75497B4899
:101D400002F04FFB59A1794802F08EFBFFF7DEFE4F
:101D500000F02AFA1CE04FF0000B002000F053FBCB
:101D60008346BBF1010F0CD1BAF1020F02D14FF043
:101D7000000A03E00AF101000FFA80FA5046FFF76B
:101D800027FFBBF1020F03D15046FFF74AFF00E0E7
:101D9000E1E700BF0020FFF747F94FF4A06001F032
:101DA000DDFA4FF41650FFF7B0FD61A000234FF4A9
:101DB0007842322100900846FEF7DBFD80E15F4863
:101DC0000078002839D14F48007801281FD15CA045
:101DD00002F040FA19E0B9F57A7F05D152495B4823
:101DE000FFF7F3FD4FF00009B9F1640F06D1FFF7DB
:101DF00056FF022802D15149087007E009F101009D
:101E00000FFA80F9012000F036FCE4E700BF3D48FE
:101E1000007890B94EA002F01DFA0CE0FFF73FFFEA
:101E2000012805D1454908704CA002F013FA03E0DF
:101E3000642000F020FCF1E700BF0020FFF7F4F879
:101E40002AA000231F220A2100900320FEF791FD03
:101E50003A480078012823D1CAE0B6F57A7F18D134
:101E6000002240F22551394801F04FF940F2255146
:101E7000364801F059FA2D493448FFF7A6FD39A03C
:101E800002F0E8F90026012240F225512F4801F026
:101E90003CF9642E05D1FFF702FF032801D165E06C
:101EA000A7E0A0E000480040D1ADBBB70D0A00009C
:101EB00098000020AC010020940000209000002039
:101EC0008C00002068656C6C6F21000046726965AB
:101ED0006E6420310000000054616968616E672003
:101EE000536869656C64000078000020467269657B
:101EF0006E643100850000204600000043000000B1
:101F00004E00000084000020580000205C000020EB
:101F1000D80000206000002025730D0A000000009A
:101F20005454414357000000640000206C0000201E
:101F30004E4F205349474E414C0000007400002092
:101F4000B7A2CBCDC4A3CABD00000000004400402E
:101F5000BDD3CAD5C4A3CABD0000000066696E64C3
:101F600021210000B7A2CBCDC1CB0000681C05B277
:101F7000012D05D153A002F06DF9FFF791FD0890F6
:101F8000022D30D152A002F065F9FFF789FD0990CA
:101F9000DDE90810471A3A4650A101A802F066F997
:101FA0004F4840F82470601C04B2601C032816D10E
:101FB0000024B8F1000F05D14948FFF761FE0690F3
:101FC0004FF00108B8F1010F09D14548FFF758FE5D
:101FD0000790DDE90601FFF72EFE4FF0000801A88B
:101FE000FFF7BBFD0025701C06B2012000F043FB8B
:101FF00033E73C480078022862D13BA002F02AF97E
:102000005DE039A002F026F9642E53D139A002F028
:1020100021F9FFF744FE02284BD139A002F01AF94A
:10202000681C05B2012D05D126A002F013F9FFF7B7
:1020300037FD0890022D38D125A002F00BF9FFF7EB
:102040002FFD0990DDE90810471A3A4623A101A89F
:1020500002F00CF9224840F82470601C04B2601CA5
:1020600003281ED10024B8F1000F09D11C48FFF746
:1020700007FE069019A0069902F0ECF84FF001084F
:10208000B8F1010F0DD11648FFF7FAFD0790DDE911
:102090000601FFF7D0FD11A0079902F0DBF84FF021
:1020A000000801A8FFF759FD002518A11948FFF7FE
:1020B0008CFC0026701C06B2012000F0DCFAA0E7C0
:1020C0007DE60000CBD1D1B0D0C5BAC5320000004A
:1020D000CBD1D1B0D0C5BAC5330000002564000013
:1020E000A001002074000020BFAACABCD1ADBBB7BC
:1020F00000000000CBD1D1B0D0C5BAC500000000AF
:10210000CBD1D1B0D0C5BAC5310000005454414341
:10211000570D0A00004400401E480068401C1D493D
:102120000860704770B5042001F067F91A4800682C
:102130001A4AB0FBF2F1B1F1807F00D31DE021F02B
:102140007F40401E4FF0E022506150170F220028C0
:1021500007DA13071D0E124B00F00F04241F1D5544
:1021600003E013071C0E0F4B1C5400BF00204FF060
:10217000E02290610720106100BF01204FF0E021B4
:1021800048610846006940F00300086170BD0148DD
:1021900000687047880000200000002040420F00C7
:1021A00018ED00E000E400E000B587B001218804EC
:1021B00000F078FE0121082000F067FE4FF48060F7
:1021C000ADF8180018208DF81B0003208DF81A00B8
:1021D00006A95B4800F09CFB4FF40060ADF81800C6
:1021E00048208DF81B0006A9554800F091FB4FF4DC
:1021F000165002900020ADF80C00ADF80E00ADF8BE
:102200001000ADF814000C20ADF8120002A94D48E2
:1022100000F0E3FE01214B4800F06BFF40214948EC
:1022200001F04FF8002240F22551464800F06DFFC2
:102230004FF4A06001F092F827208DF804000120EF
:102240008DF8070000208DF8050002208DF80600AB
:1022500001A801F088F807B000BD2DE9F04107465C
:102260000C46204602F0E1F8064600250BE0615DD1
:10227000344800F0ABFF00BF4021324801F014F8B1
:102280000028F9D06D1CB542F1DB2FA001F0E2FF70
:10229000BDE8F08110B540F225512A4801F01AF846
:1022A00000284BD0274800F095FFC4B2502C0DD128
:1022B000002027490860012026490860002026499F
:1022C0000860C821254802F020F936E0542C03D1DB
:1022D00001202149086030E01E480068012823D110
:1022E0001D48006801281FD10A2C1DD11B4802F08F
:1022F0009CF8072809D1012019490860002240F202
:102300002551104800F001FF17E000201449086033
:102310001049086010490860C821104802F0F5F81B
:1023200000200B49086008E00C480949096844543A
:1023300007480068401C0649086000BF10BD000047
:10234000000C014000480040B7A2CBCDC1CB00003B
:102350008C0000209400002090000020AC010020A0
:102360009800002008B50121242000F08EFD4FF4D4
:102370008070ADF8000010208DF8030003208DF868
:1023800002006946094800F0C3FA4FF4807107481B
:1023900000F06BFB0420ADF800006946044800F033
:1023A000B7FA0421024800F060FB08BD00080140B4
:1023B0000014014008B50121142000F066FD012140
:1023C000374800F076FB4FF40040ADF8000048209D
:1023D0008DF803006946334800F09AFA2020ADF8E2
:1023E000000048208DF8030069462F4800F090FA5D
:1023F0000120ADF8000028208DF803006946294827
:1024000000F086FA08BD10B5044614B10120274932
:1024100008702648007868B32021234800F00BFBA1
:1024200058B14FF400411F4800F005FB28B10121CD
:102430001C4800F000FB01281CD10A2000F01BF909
:1024400000201A4908702021174800F0F4FA08B952
:10245000012010BD4FF40041124800F0ECFA08B919
:102460000220F6E701210F4800F0E5FA012815D116
:102470000320EEE720210C4800F0DDFA01280DD101
:10248000C103084800F0D7FA012807D10121054807
:1024900000F0D1FA10B90120044908700020D8E7F3
:1024A0000002300000080140001001409C000020A4
:1024B0007FB505460C460121022000F0F3FCADF883
:1024C0000850ADF804400020ADF80A00ADF8060051
:1024D00001A9424801F084F8012211463F4801F069
:1024E000F6FB1D208DF8000000208DF80100032070
:1024F0008DF8020001208DF80300684600F033FFDC
:1025000037A001F0A7FE0121344801F0C5FB0020EF
:10251000384908607FBD10B50121304801F085FEC3
:1025200040B101212D4801F091FE32480068401C65
:102530003049086010BD10B50446204604EBD07148
:102540004910A4EB410121B90021244801F0A4FB6A
:1025500003E00121214801F09FFB10BD7FB5054636
:102560000C460121202000F09DFCADF80850ADF88C
:1025700004400020ADF80A00ADF8060001A91E488D
:1025800001F02EF8012211461B4801F0A0FB372074
:102590008DF8000000208DF8010003208DF8020066
:1025A00001208DF80300684600F0DDFE012112488D
:1025B00001F072FB00200F4908607FBD10B50121BA
:1025C0000D4801F032FE40B101210B4801F03EFE02
:1025D00008480068401C0749086010BD000400401E
:1025E0006265666F72655F7573617274335F696E81
:1025F00069740000A00000200014004010B56FF0C6
:10260000040000F0FAFE2E4800682E49B0FBF1F0FD
:102610002D4908700846007800EB4001C1EBC0105E
:102620004FF6FF7101EAC0002849088010BD01463D
:10263000254A12784A434FF0E0235A6100229A61FA
:102640001A46126942F001021A6100BF4FF0E022FF
:10265000106900F001021AB100F48032002AF5D0AE
:102660004FF0E022126922F001024FF0E0231A61DC
:1026700000229A6170470146144A12884A434FF07B
:10268000E0235A6100229A611A46126942F001025F
:102690001A6100BF4FF0E022106900F001021AB188
:1026A00000F48032002AF5D04FF0E022126922F0C7
:1026B00001024FF0E0231A6100229A617047000086
:1026C0000000002000127A00A4000020A6000020D4
:1026D000014600BF704700BF494A128802F040021D
:1026E000002AF9D0C2B2464B1B1D1A80704710B5A4
:1026F00086B00446012144F2040000F0C6FB4FF40A
:102700000070ADF8140003208DF8160018208DF825
:10271000170005A93B4800F0FBF84FF48060ADF8C6
:10272000140004208DF8170005A9364800F0F0F8D1
:1027300025208DF8000003208DF801008DF802009F
:1027400001208DF80300684600F00DFE0194002082
:10275000ADF80800ADF80A00ADF80C00ADF81000B7
:102760000C20ADF80E0001A9254800F036FC01222E
:1027700040F22551224800F0C8FC0121204800F019
:10278000B8FC06B010BD10B540F225511C4800F051
:10279000A1FD10B31A4800F01DFDC4B21A4800880C
:1027A00000F40040C8B91848008800F4804060B1C7
:1027B0000A2C03D000201449088020E01248008829
:1027C00040F400401049088019E00D2C06D10E4855
:1027D000008840F480400C49088010E00A480088D6
:1027E000C0F30D0009490C5407480088401C0649F5
:1027F000088008460088C72801DD0020088010BD39
:102800000038014000080140AC00002075020020A3
:102810000948804709480047FEE7FEE7FEE7FEE774
:10282000FEE7FEE7FEE7FEE7FEE7FEE704480549B0
:10283000054A064B704700003103000831010008CB
:10284000A0030020A0090020A0050020A005002072
:1028500010B50446CC48844208D10121042000F080
:102860002EFB0021042000F02AFB46E0C7488442EA
:1028700008D10121082000F022FB0021082000F0EF
:102880001EFB3AE0C248844208D10121102000F02A
:1028900016FB0021102000F012FB2EE0BD48844200
:1028A00008D10121202000F00AFB0021202000F0A7
:1028B00006FB22E0B848844208D10121402000F004
:1028C000FEFA0021402000F0FAFA16E0B3488442F4
:1028D00008D10121802000F0F2FA0021802000F0D0
:1028E000EEFA0AE0AE48844207D10121801500F0DB
:1028F000E6FA0021A01500F0E2FA10BD10B50121A2
:10290000084600F0DCFA0021012000F0D8FA10BDE2
:102910002DE9F04102460025002600200023002476
:10292000002791F803C00CF00F0591F803C00CF0DC
:10293000100CBCF1000F03D091F802C04CEA050561
:1029400091F800C0BCF1000F31D0146800202BE0DA
:102950004FF0010C0CFA00F3B1F800C00CEA0306CA
:102960009E4220D183004FF00F0C0CFA03F7BC43BA
:1029700005FA03FC4CEA040491F803C0BCF1280FEB
:1029800006D14FF0010C0CFA00FCC2F814C00AE0AA
:1029900091F803C0BCF1480F05D14FF0010C0CFABF
:1029A00000FCC2F810C0401C0828D1D31460B1F854
:1029B00000C0BCF1FF0F34DD546800202EE000F1B0
:1029C000080C4FF0010808FA0CF3B1F800C00CEA4B
:1029D00003069E4221D183004FF00F0C0CFA03F73F
:1029E000BC4305FA03FC4CEA040491F803C0BCF1B3
:1029F000280F05D100F1080C08FA0CF8C2F8148071
:102A000091F803C0BCF1480F07D100F1080C4FF05A
:102A1000010808FA0CF8C2F81080401C0828CED330
:102A20005460BDE8F0814FF6FF7101800221817092
:102A30000421C17070470246002093680B400BB11F
:102A4000012000E0002070470146886880B270478E
:102A500002460020D3680B400BB1012000E00020AB
:102A600070470146C86880B2704701617047416194
:102A700070470AB1016100E041617047C160704771
:102A80004FF480320A438261816182618269826986
:102A9000704702460020434B18684FF68073184079
:102AA00040EA021008433F4B186070473E49C86136
:102AB0007047F0B50A46002300240021002500F0ED
:102AC0000046B6F1004F02D1364EF16901E0354EB5
:102AD0007168C0F3034583B200F44016B6F5401F99
:102AE00008D121F070612F4E766826F070662D4F68
:102AF0007E6012E000F48016B6F5801F06D1032632
:102B000006FA05F4A14341F0706106E0460D360176
:102B100003FA06F6B14341F0706122B1460D360169
:102B200003FA06F6314300F00046B6F1004F02D139
:102B30001C4EF16101E01B4E7160F0BD30B500220A
:102B40008B071C0F0F2303FA04F2164B08338C106B
:102B500053F824309343134C08348D1044F8253037
:102B600023468C1053F824308C07240F00FA04F409
:102B700023430C4C08348D1044F8253030BD0A49ED
:102B8000DC3108607047000000080140000C014083
:102B9000001001400014014000180140001C0140D9
:102BA000002001400000014000002042E048006891
:102BB00040F00100DE49086008464068DD490840F1
:102BC000DB49486008460068DB490840D84908608E
:102BD0000846006820F4802008600846406820F419
:102BE000FE0048604FF41F0088607047D0490968B4
:102BF00021F48031CE4A11601146096821F4802108
:102C00001160B0F5803F03D0B0F5802F0ED106E003
:102C1000C749096841F48031C54A116007E0C449D9
:102C2000096841F4A021C24A116000E000BF00BF62
:102C3000704710B501460022002300204A11012AE6
:102C400002D1BB4C236806E0022A02D1B84C236AA9
:102C500001E0B74C636A01F01F02012494401C405C
:102C60000CB1012000E0002010BD38B5002000901C
:102C70000024002500BF3120FFF7DBFF0546009848
:102C8000401C00904FF6FF710098884201D0002D43
:102C9000F1D03120FFF7CDFF08B1012400E000247E
:102CA000204638BD01460020A14A106820F0F800F7
:102CB00040EAC10010607047A049086070470246B2
:102CC00000209B4B586820F47C1042EA0103184313
:102CD000974B586070479949086670470146002035
:102CE000934A506820F003000843506070479048B2
:102CF000406800F00C007047014600208C4A506884
:102D000020F0F00008435060704701460020884AD8
:102D1000506820F4E060084350607047014600208E
:102D2000834A506820F4605040EAC1005060704708
:102D300029B17F4A527A02437D4B5A7204E07C4AA1
:102D4000527A82437A4B5A7270477C49D831086074
:102D5000704701460020764A506820F440400843FE
:102D6000506070470021724A20321170704A82F818
:102D70002010012802D004280AD104E001216C4A65
:102D80002032117005E00521694A2032117000E0FF
:102D900000BF00BF70476A49086070476449096A0C
:102DA0000143634A116270476549443908607047BE
:102DB00030B500210022002400235D4D6D6805F030
:102DC0000C0121B1042905D0082923D105E05D4D6E
:102DD000056022E05B4D05601FE0554D6D6805F410
:102DE0007012534D6D6805F48034022505EB924254
:102DF0001CB9554D554305600BE04D4D6D6805F40C
:102E000000351DB1504D5543056002E04D4D554311
:102E1000056002E04B4D056000BF00BF444D6D688A
:102E200005F0F0010909494D6B5C0568DD4045601E
:102E30003F4D6D6805F4E061090A444D6B5C4568DF
:102E4000DD4085603A4D6D6805F46051C90A3F4D1B
:102E50006B5C4568DD40C560354D6D6805F44041EB
:102E6000890B3B4D6B5CC568B5FBF3F5056130BD67
:102E700029B12F4A526902432D4B5A6104E02C4A72
:102E8000526982432A4B5A61704729B1284A926994
:102E90000243274B9A6104E0254A92698243244BFE
:102EA0009A61704729B1224AD2690243204BDA6104
:102EB00004E01F4AD26982431D4BDA61704729B191
:102EC0001B4AD26802431A4BDA6004E0184AD268FF
:102ED0008243174BDA60704729B1154A12690243E1
:102EE000134B1A6104E0124A12698243104B1A61B3
:102EF000704713494039086070471049C8647047EB
:102F00000B49C87170470A48406A40F08070084910
:102F10004862704701460020054A92680A400AB19B
:102F2000012000E0002070470149887270470000CE
:102F3000001002400000FFF8FFFFF6FE00004242D2
:102F40008004424200127A0000093D00AE000020D9
:102F5000BE00002010B50446FB48844209D101217F
:102F60008803FFF7ACFF00214FF48040FFF7A7FF75
:102F700032E0F648844209D101214804FFF7ACFF52
:102F800000214FF40030FFF7A7FF25E0F04884420E
:102F900009D101218804FFF79FFF00214FF4802011
:102FA000FFF79AFF18E0EB48844209D10121C804D9
:102FB000FFF792FF00214FF40020FFF78DFF0BE099
:102FC000E548844208D101210805FFF785FF00216B
:102FD0004FF48010FFF780FF10BD2DE9F04786B059
:102FE00005460E460024A24600BFA1460027B08930
:102FF00000B100BF2F462C8A4CF6FF700440F088C9
:1030000004432C82AC894EF6F3100440B088318919
:103010000843718908430443AC81AC8A4FF6FF40F2
:103020000440B0890443AC8201A8FFF7C1FEC64842
:10303000874202D1DDF810A001E0DDF80CA0A889DC
:1030400000F4004040B10AEBCA0000EB0A103168FE
:103050004900B0FBF1F807E00AEBCA0000EB0A10E8
:1030600031688900B0FBF1F86420B8FBF0F004018E
:103070002009642101FB1089A88900F4004040B1B7
:10308000322000EBC900B0FBF1F000F00700044370
:1030900008E0322000EB09106421B0FBF1F000F0F1
:1030A0000F0004432C8106B0BDE8F0874FF41651A1
:1030B000016000218180C18001810C2141810021BA
:1030C0008181704710B502460020108A4FF2FF033D
:1030D00018400B884C8823438C882343CC88234397
:1030E0001843108210BD0021018041808180C18081
:1030F000704721B1828942F40052828104E08289C2
:103100004DF6FF731A4082817047F0B503460024E4
:1031100000260025002040F66A17B94200D100BF02
:103120001846C1F3421401F01F06012707FA06F5FD
:10313000012C01D10C3004E0022C01D1103000E050
:1031400014301AB107682F43076002E00768AF43E5
:103150000760F0BD1AB1838A0B43838202E0838A41
:103160008B4383827047028A4FF6F0731A400282C3
:10317000028A0A430282704782894FF2FF731A4023
:10318000828182890A438281704721B1828942F01B
:103190000202828104E082894FF6FD731A40828127
:1031A0007047028A4FF6DF731A400282028A0A438E
:1031B0000282704721B1028A42F48042028204E016
:1031C000028A4BF6FF731A4002827047C1F308026D
:1031D0008280704701468888C0F308007047818963
:1031E00041F0010181817047028BD2B20283028BD0
:1031F00042EA012202837047028B02F47F4202837B
:10320000028B0A430283704721B1828A42F0200276
:10321000828204E0828A4FF6DF731A40828270470E
:1032200021B1828A42F01002828204E0828A4FF643
:10323000EF731A408282704721B1828A42F00802FD
:10324000828204E0828A4FF6F7731A4082827047C6
:1032500021B1828942F40042828103E08289C2F373
:103260000E028281704721B1828A42F4006282821A
:1032700004E0828A4FF2FF731A4082827047828A8A
:103280004FF6FB731A408282828A0A438282704719
:1032900021B1828A42F00202828204E0828A4FF6E1
:1032A000FD731A408282704702460020B1F5007F0C
:1032B00000D100BF13880B400BB1012000E00020BB
:1032C000704701F40072B2F5007F00D100BFCA431D
:1032D0000280704770B502460024002300250020BC
:1032E00040F66A16B14200D100BFC1F3421501F0A9
:1032F0001F03012606FA03F3012D02D196893340FC
:1033000006E0022D02D1168A334001E0968A33404E
:103310000C12012606FA04F41688344013B10CB1DD
:10332000012000E0002070BD10B50022002340F60F
:103330006A14A14200D100BF0A1201249440A3B232
:10334000DC43048010BD0000003801400044004010
:1033500000480040004C004000500040314901430B
:10336000314A1160704770B5002100230F22C478E4
:1033700004B32D4C246804F4E064C4F5E064210A2D
:10338000C1F10403CA40447804FA03F1847814407C
:1033900021430901254C0678A155047804F01F0546
:1033A0000124AC4005786D11AD0005F1E025C5F8AC
:1033B000004109E0047804F01F050124AC401C4DD5
:1033C0000678761145F8264070BD1A4A0A40024335
:1033D000154B1B1F1A60704739B1134A121D126832
:1033E0000243114B1B1D1A6006E00F4A121D1268A2
:1033F00082430D4B1B1D1A607047042808D14FF003
:10340000E021096941F004014FF0E022116107E079
:103410004FF0E021096921F004014FF0E022116131
:10342000704700000000FA050CED00E000E400E049
:1034300080E100E080FFFF1F10B50446FE48844293
:1034400008D10121C014FFF73AFD0021E014FFF775
:1034500036FDC4E0B4F1804F08D101210846FFF7E2
:103460003BFD00210120FFF737FDB8E0F34884421F
:1034700008D101210220FFF72FFD00210220FFF7D4
:103480002BFDACE0EE48844208D101210420FFF777
:1034900023FD00210420FFF71FFDA0E0E94884423E
:1034A00008D101210820FFF717FD00210820FFF7B0
:1034B00013FD94E0E448844208D101211020FFF775
:1034C0000BFD00211020FFF707FD88E0DF48844254
:1034D00008D101212020FFF7FFFC00212020FFF769
:1034E000FBFC7CE0DA48844208D101214014FFF75C
:1034F000E6FC00216014FFF7E2FC70E0D54884424E
:1035000009D10121C804FFF7DAFC00214FF40020A3
:10351000FFF7D5FC63E0D048844209D101210805BA
:10352000FFF7CDFC00214FF48010FFF7C8FC56E0F8
:10353000CA48844209D101214805FFF7C0FC002197
:103540004FF40010FFF7BBFC49E0C548844208D1A6
:1035500001214020FFF7C0FC00214020FFF7BCFC08
:103560003DE0C048844208D101218020FFF7B4FC2F
:1035700000218020FFF7B0FC31E0BB48844208D135
:1035800001218015FFF7A8FC0021A015FFF7A4FC7E
:1035900025E0B648844209D101210804FFF78FFCD9
:1035A00000214FF48030FFF78AFC18E0B0488442D5
:1035B00009D101214804FFF782FC00214FF40030BB
:1035C000FFF77DFC0BE0AB48844208D10121880461
:1035D000FFF775FC00214FF48020FFF770FC10BD51
:1035E00000220288944B98420ED0994B98420BD0FF
:1035F000B0F1804F08D0914B984205D0904B984243
:1036000002D0904B984204D14FF68F731A404B88EA
:103610001A438D4B984207D08C4B984204D04FF6FA
:10362000FF431A40CB881A4302808B8883850B881E
:103630000385814B98420BD0854B984208D08B4B29
:10364000984205D08A4B984202D08A4B984201D1C9
:103650000B7A038601238382704770B50024002211
:103660000023058C4FF6FE7635400584028C838856
:10367000048B4FF68F752C40B51E2C400D882C43C3
:10368000751E2A400D892A434D882A436A4DA84257
:103690000BD06F4DA84208D0744DA84205D0744D90
:1036A000A84202D0734DA84213D14FF6F7752A40B5
:1036B0004D892A434FF6FB752A408D882A434FF6E1
:1036C000FF652B404FF6FF552B408D892B43CD894D
:1036D0002B4383800483CD888586028470BD70B5BA
:1036E000002400220023058C4FF6EF763540058438
:1036F000028C8388048B48F6FF752C404FF6FF45FB
:103700002C400D884FF6FF7606EA05252C434FF630
:10371000DF752A400D8906EA05152A434D8806EA19
:1037200005152A43444DA84202D0494DA8421DD157
:103730004FF67F752A404D894FF6FF7606EA05154C
:103740002A434FF6BF752A408D8806EA05152A439D
:103750004FF6FF352B404FF2FF752B408D8906EA5F
:1037600085052B43CD8906EA85052B438380048399
:10377000CD880587028470BD70B500240022002327
:10378000058C4FF6FF6635400584028C8388848B58
:103790004FF68F752C404FF6FC752C400D882C434E
:1037A0004FF6FF552A400D894FF6FF7606EA0525AC
:1037B0002A434D8806EA05252A431F4DA84202D018
:1037C000234DA8421DD14FF2FF752A404D894FF677
:1037D000FF7606EA05252A434FF6FF352A408D88F5
:1037E00006EA05252A434EF6FF752B404DF6FF7578
:1037F0002B408D8906EA05152B43CD8906EA051570
:103800002B4383808483CD888587028470BD70B507
:10381000002200230024058C4EF6FF7635400584F7
:10382000038C8488828B48F6FF752A404FF6FF454B
:103830002A400D8820E00000002C014000040040D8
:1038400000080040000C0040001000400014004040
:1038500000340140004C0140005001400054014040
:1038600000180040001C00400020004000400140C3
:1038700000440140004801404FF6FF7606EA052566
:103880002A434DF6FF752B400D8906EA05352B437B
:103890004D8806EA05352B43FA4DA84202D0FA4D71
:1038A000A84208D14BF6FF752C408D894FF6FF7664
:1038B00006EA85152C4384808283CD88A0F8405089
:1038C000038470BD828B4FF2FF331A408283828B58
:1038D0004FF6FF7303EA01231A4382837047F0B562
:1038E0000C461546002200210026078C4EF6FF7C70
:1038F00007EA0C070784828B018C4FF6FF7707EAF3
:10390000043640F6FF473A404FF6FF7707EA0527AF
:103910003A434FF6FF7707EA03373A43D94FB842A5
:103920000ED0D94FB8420BD0B0F1804F08D0D74F4E
:10393000B84205D0D64FB84202D0D64FB84206D1D1
:103940004DF6FF77394046F48057394305E047F696
:10395000FF57394044F48057394382830184F0BDD6
:10396000828B4FF6F3731A408283828B0A438283E1
:103970007047F0B50C461546002200210026078C42
:103980004FF6FF6C07EA0C070784828B018C4FF619
:10399000FF7707EA04264FF60C773A404FF6FF7799
:1039A00007EA03172F433A43B64FB8420ED0B64F3B
:1039B000B8420BD0B0F1804F08D0B44FB84205D018
:1039C000B34FB84202D0B34FB84206D14FF6FF57BB
:1039D000394046F48077394305E04FF2FF573940CC
:1039E00044F48077394382830184F0BD028B4FF227
:1039F000FF331A400283028B4FF6FF7303EA012361
:103A00001A4302837047F0B50C4615460022002188
:103A10000026078C4FF6EF7C07EA0C070784028B21
:103A2000018C4FF6FF7707EA041640F6FF473A404D
:103A30004FF6FF7707EA03373A434FF6FF7707EA77
:103A400005273A438F4FB8420ED08F4FB8420BD064
:103A5000B0F1804F08D08D4FB84205D08C4FB8429E
:103A600002D08C4FB84206D14FF6DF77394046F08E
:103A70001007394305E04FF65F77394044F01007EF
:103A8000394302830184F0BD028B4FF6F3731A4071
:103A90000283028B0A4302837047F0B50C46154639
:103AA00000220021068C4FF6FE773E400684028BF2
:103AB000018C4FF60C7632407E1C06EA03162E432C
:103AC0003243704EB0420ED06F4EB0420BD0B0F1C8
:103AD000804F08D06D4EB04205D06D4EB04202D03E
:103AE0006C4EB04206D14FF6FD76314044F00106EF
:103AF000314305E04FF6F576314044F0010631439D
:103B000002830184F0BD70B505460C465D488542D0
:103B10000ED05D4885420BD0B5F1804F08D05B4890
:103B2000854205D05A48854202D05A48854200D184
:103B300000E000BF208850B92389A2886188284608
:103B4000FFF7ABFFE1882846FFF79EFF25E02088BE
:103B500004280AD12389A28861882846FFF753FFE9
:103B6000E1882846FFF742FF17E0208808280AD19D
:103B70002389A28861882846FFF7FBFEE188284652
:103B8000FFF7EEFE09E02389A28861882846FFF747
:103B9000A6FEE1882846FFF795FE70BD2DE9F041AD
:103BA00005460C4600260127608808B9022600E079
:103BB0000026A088012801D1022700E001272088E3
:103BC000A0B92389A28861882846FFF766FFE188AB
:103BD0002846FFF759FF23893A4631462846FFF722
:103BE00012FFE1882846FFF701FF13E02389A2882E
:103BF00061882846FFF707FFE1882846FFF7F6FEB1
:103C000023893A4631462846FFF747FFE188284690
:103C1000FFF73AFFBDE8F0810A884B881A438B888A
:103C20001A43CB881A430B891A434B891A438B8951
:103C30001A43A0F8442070474FF6FF71818000219D
:103C40000180C18041800172704700210180418064
:103C50008180C180018141818181C18170470021C2
:103C600001804180012181800021C1800181704754
:103C70000021018041808180C18001814181818159
:103C800070470000002C0140003401400004004057
:103C900000080040000C004021B1028842F00102FF
:103CA000028004E002884FF6FE731A4002807047DB
:103CB00031B1B0F8442042F40042A0F8442005E0BD
:103CC000B0F84420C2F30E02A0F8442070471AB1A5
:103CD00083890B43838102E083898B43838170470F
:103CE0008182704741EA0203A0F8483070471AB158
:103CF00083890B43838102E083898B4383817047EF
:103D000001894FF6F8721140018170470A4600217F
:103D100001894FF68F73194011430181704730B507
:103D200004460D4629462046FFF7F0FF208940F063
:103D30000700208130BD2DE9F04104460D461646AE
:103D40001F46602D06D13B46012231462046FFF733
:103D50005AFE05E03B46012231462046FFF79DFE14
:103D600029462046FFF7D2FF208940F00700208136
:103D7000BDE8F08130B50C4600210189C9B24FF68B
:103D8000FF7505EA0325154325432943018130BD0D
:103D90002DE9F04105460E46174698460024434655
:103DA0003A4631462846FFF7E5FF2C894FF6F87072
:103DB000044044F007044FF68F70044044F0700450
:103DC0002C81BDE8F081F0B504460D4616461F462D
:103DD0003B46324629462046FFF7CCFF208940F477
:103DE00080402081F0BD0185828270470A46002113
:103DF00001884FF68F731940114301807047F0B569
:103E00000C4615461E460021002200230189028B24
:103E1000038C4FF6F877394021434FF6FC473A4080
:103E200040F201173A434FF6DD773B404FF6FF77FC
:103E300007EA06172F433B43018102830384F0BD49
:103E40000A460021018B4FF68F73194011430183FD
:103E500070470A460021018B48F6FF7319404FF660
:103E6000FF7303EA02231943018370470A460021C6
:103E7000818B4FF68F7319401143818370470A4637
:103E80000021818B48F6FF7319404FF6FF7303EA58
:103E9000022319438183704721B1028842F08002D6
:103EA000028004E002884FF67F731A400280704758
:103EB00021B1828842F00402828004E082884FF6B9
:103EC000FB731A408280704721B1828842F0080259
:103ED000828004E082884FF6F7731A408280704730
:103EE00021B1828842F00102828004E082884FF68C
:103EF000FE731A40828070470A460021018B4FF6FC
:103F0000F77319401143018370470A460021018B62
:103F10004FF2FF7319404FF6FF7303EA0223194370
:103F2000018370470A460021818B4FF6F7731940D1
:103F30001143818370470A460021818B4FF2FF7342
:103F400019404FF6FF7303EA022319438183704738
:103F50000A460021018B4FF6FB7319401143018380
:103F600070470A460021018B4FF6FF3319404FF688
:103F7000FF7303EA02231943018370470A460021B5
:103F8000818B4FF6FB7319401143818370470A46BA
:103F90000021818B4FF6FF3319404FF6FF7303EA80
:103FA00002231943818370470A460021018B4FF693
:103FB0007F7319401143018370470A460021018B2A
:103FC000C1F30E014FF6FF7303EA02231943018385
:103FD00070470A460021818B4FF67F7319401143C9
:103FE000818370470A460021818BC1F30E014FF691
:103FF000FF7303EA02231943818370470A460021B5
:10400000018C4FF6FD7319401143018470470A4635
:104010000021018C4FF6F77319401143018470475A
:104020000A460021018C4FF6DF7319404FF6FF73EB
:1040300003EA02131943018470470A460021018CE8
:104040004FF67F7319404FF6FF7303EA02131943CB
:10405000018470470A460021018C4FF6FF53194036
:104060004FF6FF7303EA02231943018470470A469F
:104070000021018C4FF2FF7319404FF6FF7303EAE2
:1040800002231943018470470A460021018C4DF632
:10409000FF7319404FF6FF7303EA0233194301849B
:1040A000704730B5002301248C40A3B2048C9C439C
:1040B0000484048C02FA01F5ADB22C43048430BDB3
:1040C00030B5002304248C40A3B2048C9C430484A8
:1040D000048C02FA01F5ADB22C43048430BD70B5F6
:1040E0000346002000241846183001258D40ACB24C
:1040F0001D8CA5431D8409B1082909D100EB61007D
:10410000056825F0700505600568154305600EE03B
:104110000D1FC5F34E052844056825F4E0450560EC
:1041200005684FF6FF7606EA02263543056070BD46
:1041300021B1028842F00202028004E002884FF6B8
:10414000FD731A400280704721B1028842F00402D8
:10415000028004E002884FF6FB731A400280704729
:1041600021B1828842F08002828004E082884FF68A
:104170007F731A408280704702884FF6F7731A40A7
:10418000028002880A430280704782884FF68F734C
:104190001A40828082880A438280704702894FF6E3
:1041A000F8731A40028102890A430281704702892A
:1041B0004FF67F731A40028102890A4302817047D9
:1041C0008184704781857047818670470187704779
:1041D00081877047A0F84010704702884FF6FF4370
:1041E0001A40028002880A43028070470146888E86
:1041F00070470146088F70470146888F7047014617
:10420000B1F8400070470146888C70470146088D20
:10421000704702460020138A0B400BB1012000E0DA
:1042200000207047CA430282704730B50246002022
:1042300000230024158A05EA0103958905EA010493
:1042400013B10CB1012000E0002030BDCA4302824E
:10425000704770470FB4044910B503AA029800F0E4
:1042600057FA10BC5DF814FBA80000200FB41CB571
:10427000074B06AA7B4469460090059800F019FA9E
:104280000020694600F028FA1CBC5DF814FB000011
:10429000610400002DE9F0410E4604460020206232
:1042A0002046E168884730B3252805D0D4E90121AC
:1042B0009047206A401CF2E7E168204600278847C3
:1042C000050018D0A5F14100192802D820354FF477
:1042D00000673246294620462760FBF763FF40B15E
:1042E000012804D0F61D26F007060836D8E7361D4B
:1042F000D6E72846DAE7206ABDE8F08170B50C46BB
:104300000546012A05D02878800600D5EA690023F1
:1043100002E0012305E05B1C934202D2E05C00282E
:10432000F9D1A869E618C01AA861286A1844286259
:104330002846AFF3008004E0D5E9012114F8010B11
:104340009047B442F8D32846AFF3008070BD000018
:104350002DE9F0410646002410687529314616A55E
:1043600010D0AFF30080002802DA404213A507E026
:1043700031688A0701D512A502E0490704D511A5C5
:10438000012401E0AFF3008000210A2206F1240796
:1043900009E0B0FBF2FCB0FBF2F302FB1C00303092
:1043A00078541846491C0028F3D123462A46304643
:1043B000BDE8F04100F01FB9000000002D00000032
:1043C0002B0000002000000070B5064600F004F944
:1043D0000468054630460A22002100F0ABF92C6043
:1043E00070BD40EA0103024630B59B0710D14FF083
:1043F000013400E008C208C91D1B9D4315EAC41F13
:10440000F8D013F0FF0102F8011B0DD01B0AF8E7EA
:1044100011F8013B002B02F8013B05D011F8013BDC
:10442000002B02F8013BF3D130BD10B5431C02E074
:1044300010F8011B71B18107FAD14FF0013202C8A7
:104440008C1A8C4314EAC211F9D0C01A0A0603D0A0
:10445000C01E10BDC01A10BD0A0401D0801E10BDC0
:104460000902FCD0401E10BD421E12F8013F002B75
:10447000FBD111F8013B002B02F8013BF9D1704749
:10448000032A40F2308010F0030C00F0158011F880
:10449000013BBCF1020F624498BF11F801CB00F858
:1044A000013B38BF11F8013BA2F1040298BF00F8AC
:1044B00001CB38BF00F8013B11F0030300F072811B
:1044C000083AC0F0088051F8043B083A51F804CB90
:1044D000A0E80810F5E7121D5CBF51F8043B40F856
:1044E000043BAFF30080D20724BF11F8013B11F861
:1044F00001CB48BF11F8012B24BF00F8013B00F8A5
:1045000001CB48BF00F8012B70474FF0000204298F
:10451000C0F0128010F0030C00F07881CCF1040C94
:10452000BCF1020F18BF00F8012BA8BF20F8022B26
:10453000A1EB0C0100F06AB95FEAC17C24BF00F86E
:10454000012B00F8012B48BF00F8012B7047000039
:104550004FF0013C50F8042B51F8043B9A4221D112
:10456000A2EB0C03934313EACC1317D150F8042B9E
:1045700051F8043B9A4215D1A2EB0C03934313EA82
:10458000CC130BD150F8042B51F8043B9A4209D1BB
:10459000A2EB0C03934313EACC13DBD04FF00000E3
:1045A000704700BFD01A01BAB1FA81F101F01801C9
:1045B00022FA01F0CB40C1F12001DBB2C0B2C01A37
:1045C0002CFA01F3D11A914311EAC311E6D17047D5
:1045D000704770477047704700487047400300209D
:1045E00010B5FFF7F9FF006810BD10B50446FFF7DE
:1045F000F3FF046010BD2DE9F0470D469946924641
:10460000044600F124080168880604D5E06921F019
:104610001001216000E00120A84201DD471B00E0FD
:104620000027A1697A1902EB0900081AA061207815
:10463000C00602D42046AFF30080002608E0D4E98B
:1046400001211AF806009047206A401C761C20625F
:104650004E45F4DB2078C0060AD52046AFF3008033
:1046600006E0D4E9012130209047206A401C2062F6
:10467000381EA7F10107F4DC07E0D4E9012118F89E
:1046800005009047206A401C2062281EA5F1010504
:10469000F3DC2046AFF300802078000602D502202C
:1046A000BDE8F0870120FBE701694A1C0261087838
:1046B000704700B58FB0CDE9013100210591054962
:1046C0007944CDE9031011466846FFF7E3FD0FB0CA
:1046D00000BD0000E5FFFFFF0A6802F8010B0A6059
:1046E000704710B5436913B1AFF3008001E0FFF7E5
:1046F00005FE012010BD127800F124010A7000228D
:104700004A700122EDE711684FF0FF32E9E700003F
:10471000074B70B50D467B44FFF7CBFF0446284698
:1047200000F0F5F810B14FF0FF3070BD204670BDBD
:10473000BDDFFFFF2DE9F04791460F468046044656
:10474000002614F8015B2DB100F08AF80068405D86
:10475000C007F6D12B2D02D02D2D18D0641E4A464D
:104760003946204600F084F827B13968A14201D1CA
:10477000C7F800804FF0020471050BD540420028B5
:1047800003DDFFF729FF0460A007BDE8F08746F4CA
:104790008066E4E70028F8DAFFF71EFF04606FF098
:1047A0000040F2E710B5203AC0F00B80B1E8185095
:1047B000203AA0E81850B1E81850A0E81850BFF40B
:1047C000F5AF5FEA027C24BFB1E81850A0E81850AA
:1047D00044BF18C918C0BDE810405FEA827C24BFFE
:1047E00051F8043B40F8043B08BF7047D20728BF8C
:1047F00031F8023B48BF11F8012B28BF20F8023BDB
:1048000048BF00F8012B70474FF0000200B5134677
:1048100094469646203922BFA0E80C50A0E80C50E0
:10482000B1F12001BFF4F7AF090728BFA0E80C5091
:1048300048BF0CC05DF804EB890028BF40F8042B8A
:1048400008BF704748BF20F8022B11F0804F18BFF7
:1048500000F8012B7047000000487047400300201B
:1048600010B500F07DF8001D10BD00BFCD0B00009D
:104870002DE9F05F824615468B4600270AF10104B8
:10488000B9460078302801D09DB113E014F8010B2F
:104890000127782803D0582801D045B10AE00DB18E
:1048A000102D07D1002714F8010B102502E0082570
:1048B00000E00A250026B0460EE005FB080005FBD7
:1048C00006F101271FFA80F801EB1046B6F5803F8C
:1048D00000D3B94614F8010B294600F045F800282A
:1048E000EBDABBF1000F05D00FB1641E00E05446B7
:1048F000CBF80040B9F1000F06D0FFF76DFE0221A2
:104900000160C81EBDE8F09F48EA0640FAE7007B58
:1049100000F0800070477546FFF79EFFAE46050029
:104920006946534620F00700854618B020B5FDF7CC
:104930007DFFBDE820404FF000064FF000074FF02C
:1049400000084FF0000B21F00701AC46ACE8C009AD
:10495000ACE8C009ACE8C009ACE8C0098D467047B6
:1049600000487047600300203A2800D2303820F019
:104970002002412A01D3A2F13700884201D34FF02F
:10498000FF30704710B50446AFF300802046BDE805
:104990001040FBF725BC490050EAC12018BF042095
:1049A0004A0D18BF40F0010040F2FF72B2EB515FB8
:1049B00008BF40F00200012808BF05207047000032
:1049C0002DE9F74F144694B00021C4E9021115995E
:1049D000079121F00045C9498D4206DC1599C4E9CB
:1049E000000117B00020BDE8F08FC549DFF814A31F
:1049F000A9423CDD0799C44E0029C44FC44A159909
:104A0000534619DD01F018F9554506D0C14AC24B8D
:104A100001F012F9C4E900010AE04FF0D352BE4B95
:104A200001F00AF932463B4601F006F9C4E90001FB
:104A300017B00120BDE8F08F00F014FD554506D0F9
:104A4000B44AB54B00F00EFDC4E900010AE04FF096
:104A5000D352B14B00F006FD32463B4600F002FD5A
:104A6000C4E9000117B04FF0FF30BDE8F08FAB494B
:104A7000A942159978DB21F0004183468846A84A6F
:104A8000A84B00F099FF0022A74B00F0EBFC00F0D0
:104A9000FDFE099000F029FF06460F469C4A53464A
:104AA00000F08AFF43465A4601F0BAF880468A462B
:104AB000984A994B3046394600F07EFF2A0D012571
:104AC0000B924246534601F0ABF8032DC4E90001B6
:104AD00039D00B98C1F30A51401A05EB4511113931
:104AE000814230DA9148C346784400EB0510CDF896
:104AF0000CA00C90D0E900233046394600F05CFF52
:104B000002460B46049106905846039901F094F82A
:104B100080468A4602460B465846039901F08CF8B7
:104B2000049B069A01F088F883460C980391394655
:104B3000D0E90223304600F03FFF5A46039B01F0C4
:104B40007BF86D1CBDE707980028A2BF099817B035
:104B5000BDE8F08F616881F000416160099817B08D
:104B60004042BDE8F08FFFE784461598C1F313017A
:104B7000C0F30A50A0F2F5304FEA601800F01F06AB
:104B8000C6F12000139000200690079041F4801E8B
:104B900005206D4676B1664A08EB00017A4452F86A
:104BA000213002EB8101B3404A68139922FA01F1E6
:104BB000194305E05F4908EB0002794451F82210DF
:104BC000A1FB0E27A1FB0C131A449A4234BF012308
:104BD000002303EB070A05EB8003D3E901B70F4479
:104BE0008F4234BF0121002193448B4411B193457E
:104BF00002D903E0934501D2012100E00021C3E97D
:104C000001B7514445F82010011EA0F10100C1DC9C
:104C10000298059F00F10050800F12900298DDE984
:104C20000356800000F061FE834628460D9100F097
:104C300073FE6FF01D0201F01BF9CDE90E01304645
:104C400000F06AFE6FF03D0201F012F980468A46DC
:104C5000384600F061FE6FF05D0201F009F9074689
:104C600042465346119100F0FDFBDDE90E2300F0B2
:104C7000F9FB5A460D9B00F0F5FB00250E465A46FF
:104C800028460D9B00F0D8FFDDE90E2300F0D4FF8D
:104C90004246534600F0D0FF3A46119B00F0C0FF59
:104CA000DFF898A0244A534600F086FE074688465F
:104CB000234A244B3146284600F07EFE3A464346BE
:104CC00000F0D0FB074688464FF0A84253463146D5
:104CD000284600F071FE3A46434600F0C3FB159AA1
:104CE00012F0004F04D0129A81F000415242129209
:104CF000C4E90001129817B0BDE8F08FFB21E93F2D
:104D00007CD90240FB21F93F7370032E8A19A33B23
:104D1000000040543163621A61B4D03DFB21394137
:104D200083C8C96D305FE43F0000E03FC426000047
:104D30004026000022260000182D4454FB21F93D96
:104D40003326A611460B113C2DE9FF4D21F00048FA
:104D500007460C46B8F1795F08DA00F097FD0028A5
:104D600001BF0020324904B0BDE8F08D3A46234629
:104D70001046194600F020FE054602462D480E4614
:104D80000B460621784400F05DF82A46334600F0D1
:104D900013FEDDE9022382468B463846214600F0A9
:104DA0000BFE04460F4652465B462846314600F04D
:104DB00003FE22463B4600F03FFF07468A464FF07F
:104DC000FF322846314601F053F81B4A90450ADA73
:104DD0003A46534600F030FF04B00022BDE8F04DE3
:104DE000134B00F01DBF154A4245A8BFA8F500159A
:104DF0004FF00004B8BF124D22462B4600F01CFFB6
:104E00000646884622462B460020094900F014FF3A
:104E100004460D463A4653463046414600F00CFFE4
:104E200004B022462B46BDE8F04D00F0F9BE00006C
:104E30000000F03FF82300003333D33F0000E93F88
:104E40000000D23F2DE9F0414F1E00EBC7010446A0
:104E5000D1E9000115461E4637F006020DD02A465C
:104E6000334600F0A9FD7F1E04EBC703D3E90023FE
:104E700000F0F8FA37F00602F1D1022F25D0042F06
:104E800013D0062F18BFBDE8F0812A46334600F044
:104E900093FDD4E90A2300F0E5FA2A46334600F0F0
:104EA0008BFDD4E9082300F0DDFA2A46334600F0F2
:104EB00083FDD4E9062300F0D5FA2A46334600F0F4
:104EC0007BFDD4E9042300F0CDFA2A46334600F0F6
:104ED00073FDD4E9022300F0C5FA2A46334600F0F8
:104EE0006BFDD4E90023BDE8F04100F0BBBA00003F
:104EF0002DE9FF4D054621F0004084B00C46B0F18D
:104F0000795F0BDA2846FFF746FD042808BF00F05A
:104F10006FF8284608B02146BDE8F08D2A460B46BA
:104F2000104600F049FD06460F462A46234600F08B
:104F300043FD804626488A4632463B460521784452
:104F4000FFF780FF83461098029160B3214A224BFD
:104F50004046514600F030FDCDE900015A4640463A
:104F60005146029B00F028FD82468846DDE9060195
:104F70004FF0FF3200F07CFF5246434600F05CFEEB
:104F800032463B4600F018FDDDE9062300F054FEF2
:104F9000DDE9002300F050FE08B02A462346BDE8B4
:104FA000F04D00F03DBE0B465A463046394600F003
:104FB00003FD084A084B00F055FA4246534600F0FC
:104FC000FBFC08B02A462346BDE8F04D00F04ABA83
:104FD00036230000495555555555C5BF012200F0EF
:104FE00047BF002213461046114600F0F7BA0000F2
:104FF000024A0020110700F03BBF000001FDFFFF47
:105000002DE9F84F04460D4621F000400091734908
:10501000814211DC7249884201DC06D12CB1204664
:105020002946BDE8F84FFFF7D9BF6E48002DCCBF29
:105030006D496E49BDE8F88F6D49814211DD6D49BA
:105040008142D8BF4FF0FF366DDD20462946FFF77D
:10505000A2FC042808BFFFF7CBFF20462946BDE885
:10506000F88F6549654F25F00045814233DD64497D
:10507000814219DD002632464FF080432046294602
:1050800000F0F0F980468A4601222046294600F0C9
:10509000EFFE00223B4600F0CFFD4246534600F0B3
:1050A0009DFA04460D463EE001260022BA463B46E4
:1050B0002046294600F0D6F980460F460022534686
:1050C0002046294600F0B8FD42463B4600F086FAED
:1050D00004460D4627E04B4981421BDDDFF828A13D
:1050E0000226002253462046294600F065FC002295
:1050F0003B4600F0B7F980460F4600225346204653
:10510000294600F099FD42463B4600F067FA044606
:105110000D4608E0032622462B4600203B4900F0BE
:105120005DFA04460D4622462B461046194600F00D
:1051300043FC8B46824602460B4600F03DFC074688
:105140000246334888460B4606217844FFF77AFE2C
:1051500052465B4600F030FC82462E488B463A466B
:10516000434605217844FFF76DFE3A46434600F07A
:1051700023FC02460B46002E504659460CDA00F03E
:1051800071F922462B4600F017FC01B022462B464F
:10519000BDE8F04F00F044BD00F064F922462B4614
:1051A00000F00AFC1C4A7A4402EBC603D3E9002350
:1051B00000F042FD22462B4600F03EFD174A7A449D
:1051C00002EBC603D3E9002300F02AFD009A002A6F
:1051D000B8BF81F00041BDE8F88F00000000104426
:1051E0000000F07F182D4454FB21F93FFB21F9BF4B
:1051F0000000DC3F0000203E0000F33F0000F03FD5
:105200000000E63F008003400000F83F0000F0BFD0
:1052100002200000C01F00005E1F0000261F0000CB
:1052200000B5244B21F0004287B09A42DCBF002237
:10523000134629DD204B9A4208D140B94FF00100B6
:10524000FFF7D3F9FFF7CDFE07B000BD03DBFFF793
:10525000C5FE07B000BD02AAFFF7B2FB10F00301C4
:1052600004BF0DF1080C9CE80F000DD001200129AE
:105270000ED0022914D00DF1080C00909CE80F000C
:10528000FFF736FE07B000BDFFF75EFD07B000BDBB
:105290000DF1080C00909CE80F00FFF729FE05E0D7
:1052A0000DF1080C9CE80F00FFF74EFD07B081F0F0
:1052B000004100BDFB21E93F0000F07F2DE9F041F6
:1052C000C1F30A52A2F2FF362F4A304B0D46044674
:1052D000142E2FDA002E12DA00F0C4F80022134642
:1052E00000F068FC4CD2002DA4BF0024254647DA0C
:1052F00025F00040204318BF254D41D018E0DFF8CD
:1053000094C02CFA06F705EA070C5CEA040C08BF07
:10531000BDE8F08100F0A6F80022134600F04AFC38
:105320002ED2002D03DA4FF48010F0400544BD4327
:10533000002425E0332EC8BFBDE8F081A6F1140C8F
:105340004FF0FF3727FA0CF73C4208BFBDE8F08169
:1053500000F066FC0022134600F02CFC10D2002D59
:105360000DDA142E08BF6D1C09D0C6F134000121DE
:1053700001FA00F02044A04238BF6D1C0446BC4333
:1053800029462046BDE8F0819C7500883CE4377EC4
:105390000000F0BFFFFF0F0000B5254B21F00042D9
:1053A00087B09A4203DC0022134600922BE0214B87
:1053B0009A4208D140B94FF00100FFF716F9FFF704
:1053C00010FE07B000BD03DBFFF708FE07B000BD0D
:1053D00002AAFFF7F5FA10F003014FF001000DD01B
:1053E000012914D002291AD00DF1080C9CE80F00F5
:1053F000FFF7AAFC07B081F0004100BD0DF1080CD9
:1054000000909CE80F00FFF773FD07B000BD0DF1A1
:10541000080C9CE80F00FFF797FC07B000BD0DF1EA
:10542000080C00909CE80F00FFF762FDE2E7000027
:10543000FB21E93F0000F07F10B500290AD0087871
:10544000002807D005487844FFF782F8002801D0EB
:10545000002010BD0248784410BD0000EE1E000080
:10546000E61E000010B591EA030F48BF83F0004329
:1054700000F1EA83841A71EB030C05D2121943EB95
:105480000C03001B61EB0C01DFF824E14FEA11541F
:10549000A4EB135C1EEA430F18BF9EEA445F73D06F
:1054A00023EA0E03DCF1200E21EA045143F48013B9
:1054B00032D322FA0CFE10EB0E0023FA0CFE41EB65
:1054C0000E01CCF1200E03FA0EFE10EB0E0051F18E
:1054D0000001B1F5801FCCF1200E32D201EB045156
:1054E00012FA0EF2BDE8104058BF7047401C38BF9A
:1054F0005FEA420218BF7047002814BF20F0010085
:1055000041F100014FEA410313F5001F38BF704716
:10551000A1F1C04100F048BB012A43EB0302ACF10A
:10552000200CDCF11F0E32BF4FF0000E23FA0CF3FB
:1055300010EB030041EB0451B4EB115FD0D0A1EBB1
:10554000045101F5801149085FEA300001EB045174
:105550000ED350F1000038BF12FA0EFE08D1BDE89C
:105560001040C9E7401C38BF5FEA4202CAD1C3E716
:10557000BDE810404FEA410313F5001F38BF7047E4
:10558000A1F1C04100F010BB9EEA445F08D011EACF
:105590005E0FBDE8104004BF01F0004100207047DD
:1055A000BDE8104070B500F0B1FA00BF64FBBE3E2C
:1055B0000000E0FF02494FF0000000F027BC00BFF0
:1055C0000000F87F491058BFC1F140415B1058BF3F
:1055D000C3F140438B42EFF3008070472DE9C04197
:1055E00030B4DFF8A0C23CEA111418BF3CEA13142F
:1055F00000F0EC8081EA03051CEA111444EAD5743A
:1056000018BF1CEA131500F0C780A4EB05044FF087
:10561000004545EAC12145EAC32341EA505143EA26
:10562000525304F17F74994204F500344FEAC020CC
:105630004FEAC22208BF904200F09C804FEA1365F7
:105640000FF24016765D4FEA134506FB05F7C7F1EA
:10565000807706FB07F74FEAD737A7FB0368764248
:10566000C8F58038A7FB06CE38BFA8F1010807FBB4
:1056700008E64FF0000EA6FB028CE6FB03CEDCF141
:10568000000CCEF1004E38BFAEF1010EA6FB0C5857
:105690004FF000074FF00005E6FB0E87A1FB08C6A0
:1056A000A0FB07CE16EB0E0645F10005E1FB0765F2
:1056B00015F1E04E7EBFA4F580345FEA46066D41E9
:1056C00016F1800745F100054FEA17274FEA0666F5
:1056D00047EA0567A6F1DE46B6F1805F4FEA152579
:1056E0001FD9384624F0010C05EBC471BCF1FE6FE4
:1056F00001EB0C1102D8F0BCBDE8008124425CBF74
:1057000001F5801E9EEAC47F02D4F0BCBDE8008192
:10571000244238D4F0BCA1F1C041BDE8004100F002
:1057200043BA4FEAD22242EA43524FEAD323A7FBBD
:1057300002864FEAD02040EA415007FB03661EEA8A
:105740000E0F4FEAD12105FB026658BFA6EB0056AB
:10575000B6EB00564FEA520E4EEAC37E18EB0E0E21
:1057600056EB530EBDD518EB02085E417F1C55F178
:105770000005B6E74FF480154FF000074FF0000624
:105780004FF00008ADE7F0BC4FF0000001F1C04160
:1057900001F00041BDE8008111EA0C1F0CEA13156D
:1057A00000D00CE013EA0C1F00F025804FF0000041
:1057B000F0BC81EA030101F00041BDE80081F0BCCA
:1057C000BDE8004181EA030100F0EEB9F0BCBDE89C
:1057D000004170B500F09AF9097EFC3E00F007B870
:1057E00081EA03014FF0000001F00041704781EAB7
:1057F000030100F0D9B9F0BCBDE800414FF0000052
:1058000021497047FFFDFBF9F7F5F4F2F0EEEDEBFF
:10581000E9E8E6E4E3E1E0DEDDDBDAD8D7D5D4D3AE
:10582000D1D0CFCDCCCBCAC8C7C6C5C4C2C1C0BFFA
:10583000BEBDBCBBBAB9B8B7B6B5B4B3B2B1B0AF00
:10584000AEADACABAAA9A8A8A7A6A5A4A3A3A2A1E4
:10585000A09F9F9E9D9C9C9B9A999998979796959F
:1058600095949393929191908F8F8E8E8D8C8C8B3B
:105870008B8A8989888887878685858484838382C3
:10588000828181800000FF070000F87F4FEA41031A
:105890004FEA5353A3F58063D3F11E03C8BFD3F17E
:1058A000210C0CDD4FF0004242EAC12242EA505284
:1058B00032FA03FC8CEAE17CACEBE1707047102B10
:1058C000C4BF0020704703F5787CBCF1FF3F04D0D3
:1058D0006FF0004282EA2100704770B500F016F9BF
:1058E0004992248000207047F2E710F0004248BF40
:1058F0004042B0FA80F310FA03F10AD0C3F11D035D
:1059000003F580634FEA415002EB035202EBD121D1
:1059100070474FF000007047B0FA80F310FA03F1BF
:105920000AD0C3F11D0303F580634FEA41504FEAEB
:10593000035202EBD12170474FF000007047000086
:1059400051EA030C17D41CF5801F58BFBCF5801F0B
:1059500000F10680994218BF704708BF9042704717
:1059600007D711F5801F58BF13F5801F19D499422E
:105970007047894270471CF5801F08D5BCF5801F11
:10598000F7D58B4218BF704708BF824270474FF46B
:10599000001C1CEB410F38BF1CEB430F01D28B42A4
:1059A000704770B500F0B2F8922449004FF00051F2
:1059B0004FF08053FFF706BEDFF848C170B51CEA10
:1059C000111E1EBF1CEA13159EEA0C0F95EA0C0F60
:1059D00000F06F8081EA030423EA4C134EEAD47E80
:1059E00021EA4C1141F4801143F48013AE44A1FB31
:1059F000024CA0FB0365AEF17F7E361955EB0C051A
:105A0000A1FB034C4CF10003A0FB021C16EB0C069F
:105A1000654153F10003094218BF46F0010613F433
:105A2000007F0BD14FEA03314FEA0530340341EADE
:105A3000155140EA16506FF003020AE04FEAC32105
:105A40004FEAC520F40241EA555140EA56506FF042
:105A5000020202EB2E4201EB025585EACE710AD01A
:105A60005FEA440C18BF24F0004450F1000041F1FB
:105A7000000120EAD47040F2FE7C624500D270BD85
:105A8000A84214BF4FF080444FF04044002E08BF9E
:105A90000024BEF1806FA8BFA1F1C041BDE87040F5
:105AA00080F282804FF0000001F1C04101F000411E
:105AB00070479EEA0C0F0CEA131518BF95EA0C0FFD
:105AC00006D04FF0000081EA030E0EF0004170BDD9
:105AD00000F01CF88900013E00F007B800F009B89A
